:020000040800F2
:100000000050002055110008090F00080B0F0008D0
:100010000D0F00080F0F0008110F0008000000006E
:10002000000000000000000000000000130F0008A6
:10003000150F000800000000170F0008190F000836
:100040009D1100089D1100089D1100089D110008D8
:100050009D1100089D1100089D1100089D110008C8
:100060009D1100089D1100089D1100089D110008B8
:100070009D1100089D1100089D1100089D110008A8
:100080009D1100089D1100089D1100089D11000898
:100090009D1100089D1100089D1100089D11000888
:1000A0009D1100089D1100089D1100089D11000878
:1000B0009D1100089D1100089D1100089D11000868
:1000C0009D1100089D1100089D1100089D11000858
:1000D0009D110008210F00089D1100089D110008C6
:1000E0009D1100089D1100089D11000800000000EE
:1000F0000000000000000000000000000000000000
:0C01000000000000000000005FF808F1A3
:1001100070B54FF0FF0C4CF4E06C1CEA11541DBF9D
:100120001CEA135594EA0C0F95EA0C0F00F0DEF868
:100130002C4481EA030621EA4C5123EA4C5350EA4D
:10014000013518BF52EA033541F4801143F480139E
:1001500038D0A0FB02CE4FF00005E1FB02E506F02F
:100160000042E0FB03E54FF00006E1FB03569CF084
:10017000000F18BF4EF0010EA4F1FF04B6F5007F8A
:1001800064F5407404D25FEA4E0E6D4146EB0606FC
:1001900042EAC62141EA55514FEAC52040EA5E5085
:1001A0004FEACE2EB4F1FD0C88BFBCF5E06F1ED82F
:1001B000BEF1004F08BF5FEA500E50F1000041EB66
:1001C000045170BD06F0004646EA010140EA020013
:1001D00081EA0301B4EB5C04C2BFD4EB0C0541EA35
:1001E000045170BD41F480114FF0000E013C00F34A
:1001F000AB8014F1360FDEBF002001F0004170BD6E
:10020000C4F10004203C35DA0C341BDC04F1140486
:10021000C4F1200500FA05F320FA04F001FA05F212
:1002200040EA020001F0004221F0004110EBD370DF
:1002300021FA04F642EB06015EEA430E08BF20EA0B
:10024000D37070BDC4F10C04C4F1200500FA04F3AE
:1002500020FA05F001FA04F240EA020001F0004140
:1002600010EBD37041F100015EEA430E08BF20EAB3
:10027000D37070BDC4F1200500FA05F24EEA020EFB
:1002800020FA04F301FA05F243EA020321FA04F02A
:1002900001F0004121FA04F220EA020000EBD370E1
:1002A0005EEA430E08BF20EAD37070BD94F0000FE1
:1002B0000FD101F00046400041EB010111F4801F15
:1002C00008BF013CF7D041EA060195F0000F18BFC6
:1002D000704703F00046520043EB030313F4801F02
:1002E00008BF013DF7D043EA0603704794EA0C0FBC
:1002F0000CEA135518BF95EA0C0F0CD050EA4106D2
:1003000018BF52EA4306D1D181EA030101F000414E
:100310004FF0000070BD50EA410606BF1046194676
:1003200052EA430619D094EA0C0F02D150EA013682
:1003300013D195EA0C0F05D152EA03361CBF1046C3
:1003400019460AD181EA030101F0004141F0FE4162
:1003500041F470014FF0000070BD41F0FE4141F4E6
:10036000780170BD4FF0FF0C1CEAD0521EBF1CEA92
:10037000D15392EA0C0F93EA0C0F6FD01A4480EA23
:10038000010C400218BF5FEA41211ED04FF000630C
:1003900043EA501043EA5111A0FB01310CF0004038
:1003A000B1F5000F3EBF490041EAD3715B0040EA5E
:1003B000010062F17F02FD2A1DD8B3F1004F40EB2E
:1003C000C25008BF20F00100704790F0000F0CF001
:1003D000004C08BF49024CEA502040EA51207F3AC5
:1003E000C2BFD2F1FF0340EAC250704740F40000A0
:1003F0004FF00003013A5DDC12F1190FDCBF00F091
:1004000000407047C2F10002410021FA02F1C2F13E
:10041000200200FA02FC5FEA310040F1000053EADA
:100420004C0308BF20EADC70704792F0000F00F028
:10043000004C02BF400010F4000F013AF9D040EA2E
:100440000C0093F0000F01F0004C02BF490011F4C2
:10045000000F013BF9D041EA0C018FE70CEAD153C0
:1004600092EA0C0F18BF93EA0C0F0AD030F0004C40
:1004700018BF31F0004CD8D180EA010000F00040F4
:10048000704790F0000F17BF90F0004F084691F0B2
:10049000000F91F0004F14D092EA0C0F01D14202EC
:1004A0000FD193EA0C0F03D14B0218BF084608D1B5
:1004B00080EA010000F0004040F0FE4040F40000FF
:1004C000704740F0FE4040F44000704781F000412A
:1004D00002E000BF83F0004330B54FEA41044FEA29
:1004E000430594EA050F08BF90EA020F1FBF54EAC4
:1004F000000C55EA020C7FEA645C7FEA655C00F060
:10050000E2804FEA5454D4EB5555B8BF6D420CDD30
:100510002C4480EA020281EA030382EA000083EAB3
:10052000010180EA020281EA0303362D88BF30BD53
:1005300011F0004F4FEA01314FF4801C4CEA1131A9
:1005400002D0404261EB410113F0004F4FEA033308
:100550004CEA133302D0524263EB430394EA050F93
:1005600000F0A780A4F10104D5F1200E0DDB02FA02
:100570000EFC22FA05F2801841F1000103FA0EF296
:10058000801843FA05F359410EE0A5F120050EF15C
:10059000200E012A03FA0EFC28BF4CF0020C43FA8D
:1005A00005F3C01851EBE37101F0004507D54FF09A
:1005B000000EDCF1000C7EEB00006EEB0101B1F5EA
:1005C000801F1BD3B1F5001F0CD349085FEA300030
:1005D0004FEA3C0C04F101044FEA445212F5800F3B
:1005E00080F09A80BCF1004F08BF5FEA500C50F1D8
:1005F000000041EB045141EA050130BD5FEA4C0CBB
:10060000404141EB0101013C28BFB1F5801FE9D217
:1006100091F0000F04BF01460020B1FA81F308BF3A
:100620002033A3F10B03B3F120020CDA0C3208DD06
:1006300002F1140CC2F10C0201FA0CF021FA02F1E1
:100640000CE002F11402D8BFC2F1200C01FA02F151
:1006500020FA0CFCDCBF41EA0C019040E41AA2BF76
:1006600001EB0451294330BD6FEA04041F3C1CDA3E
:100670000C340EDC04F11404C4F1200220FA04F05E
:1006800001FA02F340EA030021FA04F345EA030108
:1006900030BDC4F10C04C4F1200220FA02F001FACA
:1006A00004F340EA0300294630BD21FA04F029464C
:1006B00030BD94F0000F83F4801306BF81F48011E5
:1006C0000134013D4EE77FEA645C18BF7FEA655C58
:1006D00029D094EA050F08BF90EA020F05D054EA2A
:1006E000000C04BF1946104630BD91EA030F1EBF2F
:1006F0000021002030BD5FEA545C05D14000494133
:1007000028BF41F0004130BD14F580043CBF01F525
:10071000801130BD01F0004545F0FE4141F470010B
:100720004FF0000030BD7FEA645C1ABF19461046E6
:100730007FEA655C1CBF0B46024650EA013406BFE7
:1007400052EA033591EA030F41F4002130BD00BFA6
:1007500090F0000F04BF0021704730B54FF4806463
:1007600004F132044FF000054FF0000150E700BFE4
:1007700090F0000F04BF0021704730B54FF4806443
:1007800004F1320410F0004548BF40424FF0000130
:100790003EE700BF42004FEAE2014FEA31014FEA73
:1007A00002701FBF12F07F4393F07F4F81F06051C2
:1007B000704732F07F4208BF704793F07F4F04BF0D
:1007C00041F40021704730B54FF4607401F00045EA
:1007D00021F000411CE700BF50EA010208BF70474A
:1007E00030B54FF000050AE050EA010208BF70473B
:1007F00030B511F0004502D5404261EB41014FF4A4
:10080000806404F132045FEA915C3FF4D8AE4FF0AB
:1008100003025FEADC0C18BF03325FEADC0C18BF8E
:10082000033202EBDC02C2F1200300FA03FC20FADF
:1008300002F001FA03FE40EA0E0021FA02F114442C
:10084000BDE600BF4FEA4102B2F1E04324BFB3F579
:10085000001CDCF1FE5C0DD901F0004C4FEAC00237
:100860004CEA5070B2F1004F40EB830008BF20F01B
:100870000100704711F0804F21D113F13872BCBFD5
:1008800001F00040704741F480114FEA5252C2F12A
:100890001802C2F1200C10FA0CF320FA02F018BF73
:1008A00040F001004FEAC1234FEAD32303FA0CFCC6
:1008B00040EA0C0023FA02F34FEA4303CCE77FEA55
:1008C000625307D150EA01331EBF4FF0FE4040F49F
:1008D0004000704701F0004040F0FE4040F400004E
:1008E000704700BF80F0004002E000BF81F000418F
:1008F00042001FBF5FEA410392EA030F7FEA226CC6
:100900007FEA236C6AD04FEA1262D2EB1363C1BF55
:10091000D218414048404140B8BF5B42192B88BFC4
:10092000704710F0004F40F4000020F07F4018BFE7
:10093000404211F0004F41F4000121F07F4118BF07
:10094000494292EA030F3FD0A2F1010241FA03FCAF
:1009500010EB0C00C3F1200301FA03F100F0004397
:1009600002D5494260EB4000B0F5000F13D3B0F15F
:10097000807F06D340084FEA310102F10102FE2ACE
:1009800051D2B1F1004F40EBC25008BF20F001003E
:1009900040EA03007047490040EB0000013A28BFDD
:1009A000B0F5000FEDD2B0FA80FCACF1080CB2EB60
:1009B0000C0200FA0CF0AABF00EBC25052421843DE
:1009C000BCBFD0401843704792F0000F81F4000183
:1009D00006BF80F400000132013BB5E74FEA410356
:1009E0007FEA226C18BF7FEA236C21D092EA030FC2
:1009F00004D092F0000F08BF0846704790EA010F3C
:100A00001CBF0020704712F07F4F04D1400028BF68
:100A100040F00040704712F100723CBF00F500004A
:100A2000704700F0004343F0FE4040F40000704780
:100A30007FEA226216BF08467FEA2363014642022C
:100A400006BF5FEA412390EA010F40F4800070473F
:100A50004FF0000304E000BF10F0004348BF4042E5
:100A60005FEA000C08BF704743F0964301464FF021
:100A700000001CE050EA010208BF70474FF000037D
:100A80000AE000BF50EA010208BF704711F00043BE
:100A900002D5404261EB41015FEA010C02BF84468E
:100AA0000146002043F0B64308BFA3F18053A3F5ED
:100AB0000003BCFA8CF2083AA3EBC25310DB01FA34
:100AC00002FC634400FA02FCC2F12002BCF1004FB8
:100AD00020FA02F243EB020008BF20F00100704749
:100AE00002F1200201FA02FCC2F1200250EA4C009D
:100AF00021FA02F243EB020008BF20EADC707047E3
:100B000042000ED2B2F1FE4F0BD34FF09E03B3EB77
:100B1000126209D44FEA002343F0004323FA02F0A3
:100B200070474FF00000704712F1610F01D142028F
:100B300002D14FF0FF3070474FF00000704700BF08
:100B40004FF0FF3C06E000BF4FF0010C02E000BF99
:100B50004FF0010C4DF804CD4FEA410C7FEA6C5C7C
:100B60004FEA430C18BF7FEA6C5C1BD001B050EA1F
:100B7000410C0CBF52EA430C91EA030F02BF90EA0A
:100B8000020F0020704710F1000F91EA030F58BFC9
:100B9000994208BF90422CBFD8176FEAE37040F02B
:100BA000010070474FEA410C7FEA6C5C02D150EAC9
:100BB000013C07D14FEA430C7FEA6C5CD6D152EA84
:100BC000033CD3D05DF8040B704700BF8446104649
:100BD00062468C461946634600E000BF01B5FFF748
:100BE000B7FF002848BF10F1000F01BD4DF808ED18
:100BF000FFF7F4FF0CBF012000205DF808FB00BFE9
:100C00004DF808EDFFF7EAFF34BF012000205DF842
:100C100008FB00BF4DF808EDFFF7E0FF94BF01208F
:100C200000205DF808FB00BF4DF808EDFFF7CEFF90
:100C300094BF012000205DF808FB00BF4DF808EDCF
:100C4000FFF7C4FF34BF012000205DF808FB00BFA0
:100C50004FEA410212F5001215D211D56FF47873E4
:100C6000B3EB625212D94FEAC12343F0004343EA87
:100C7000505311F0004F23FA02F018BF4042704762
:100C80004FF00000704750EA013005D111F00040EC
:100C900008BF6FF0004070474FF00000704700BF82
:100CA0000348044B834202D0034B03B118477047FB
:100CB0001000002010000020000000000548064B36
:100CC0001B1AD90F01EBA301491002D0034B03B14A
:100CD000184770471000002010000020000000009E
:100CE00010B5064C237843B9FFF7DAFF044B13B174
:100CF0000448AFF300800123237010BD10000020D2
:100D000000000000F83C000808B5054B1BB1054980
:100D10000548AFF30080BDE80840FFF7CFBF00BF34
:100D20000000000014000020F83C000882B00A4BCC
:100D30009A6942F020029A619A6902F020020092B8
:100D4000009A9A6942F004029A619B6903F00403D5
:100D50000193019B02B070470010024008B50E4B92
:100D6000834200D008BD0D4B1B78312B07D0322BAE
:100D70000ED0332B06D10A4B08221A7002E0084B22
:100D800002221A7001220549034801F076FDE9E7C5
:100D9000034B04221A70F5E7780000202D00002094
:100DA0002C00002072B6FEE700B591B02822002189
:100DB00006A801F075FD00230193029303930493A9
:100DC00005930223069301230A9310230B9306A88D
:100DD00000F03CFC68B90F230193002102910391BC
:100DE0000491059101A800F063FE20B911B05DF8EF
:100DF00004FBFFF7D7FFFFF7D5FF0000000000005E
:100E000070B500F0F3F9FFF7CFFFFFF78FFF00F0A9
:100E1000CFF800F041F90021254801F09FF90122A7
:100E20002449254801F029FD00F0FEF9FFF790FC68
:100E30001BA3D3E90023FFF76BF9FFF703FD064679
:100E40001E4B1878FFF794FC17A3D3E90023FFF794
:100E50005FF904460D463046FFF79CFC22462B46C0
:100E6000FFF756F901F0FCFD0022154BFFF750F992
:100E70000022134BFFF730FBFFF7E4FC04460C4B5A
:100E80001D68E86A80B20130FFF7E6FD2146FFF7F2
:100E900069FAFFF735FE80B26863C5E7AFF30080FB
:100EA000FCA9F1D24D62503F1F85EB51B81E09409D
:100EB000300000202D000020780000202C000020B1
:100EC0000000E03F82B00E4B9A6942F001029A6145
:100ED0009A6902F001020092009ADA6942F08052A7
:100EE000DA61DB6903F080530193019B054A536883
:100EF00023F0E06343F00073536002B0704700BF1B
:100F00000010024000000140FEE7FEE7FEE7FEE7BA
:100F1000FEE770477047704708B500F079F908BDE3
:100F200008B5024801F04CFB08BD00BF7800002066
:100F3000704700000268094B9A4200D0704782B0A7
:100F400003F564439A6942F400629A619B6903F471
:100F500000630193019B02B0704700BF002C014069
:100F600000B587B0002302930393049305930268AE
:100F70000D4B9A4202D007B05DF804FB03F56443C1
:100F80009A6942F004029A619B6903F00403019399
:100F9000019B4FF48073029302230393059302A9EC
:100FA000024800F02FFAE6E7002C0140000801405B
:100FB00010B596B0002412941394149415941094C0
:100FC000119409940A940B940C940D940E940F941C
:100FD0002022214601A801F063FC2D482D4B03601F
:100FE00007234360846040F2E733C36004614461D7
:100FF0008023836100F024FF002837D14FF4805311
:10100000129312A9224801F01BF8002831D1204880
:1010100000F042FF00282FD100231093119310A954
:101020001B4801F009F950BB6023099300220A9282
:101030000B920C920D920E920F9209A9144800F097
:1010400085FFF8B90023019302930393049305935A
:101050004FF400520692089301A90D4801F022F9BD
:1010600098B90B48FFF77CFF16B010BDFFF79AFE4A
:10107000C4E7FFF797FECAE7FFF794FECCE7FFF758
:1010800091FED1E7FFF78EFEDCE7FFF78BFEE8E786
:1010900030000020002C014008B50A480A4B0360CC
:1010A0004FF4E133436000238360C36003610C228B
:1010B00042618361C36101F0C7F900B908BDFFF760
:1010C00071FEFBE7780000200038014030B587B0A2
:1010D0000023029303930493059302681B4B9A42E7
:1010E00001D007B030BD03F558439A6942F48042FD
:1010F0009A619A6902F480420092009A9A6942F0D9
:1011000004029A619B6903F004030193019B4FF46D
:101110000073029302230393032305930C4D02A94A
:10112000284600F06FF94FF4806302930024039483
:10113000049402A9284600F065F92246214625209C
:1011400000F0BEF8252000F0CBF8CAE700380140D7
:1011500000080140FFF7ECFE0B480C490C4A002345
:1011600002E0D458C4500433C4188C42F9D3094A5D
:10117000094C002301E013600432A242FBD301F0CA
:10118000DFFBFFF73DFE704700000020100000204D
:10119000243F0008100000205C020020FEE7000051
:1011A00010B504460E4B1A784FF47A73B3FBF2F382
:1011B0000C4A1068B0FBF3F000F0A0F868B90F2CEF
:1011C00001D901200AE0002221464FF0FF3000F053
:1011D00077F8054B1C60002000E0012010BD00BF27
:1011E00004000020000000200800002008B5074A85
:1011F000136843F010031360032000F04FF80F2032
:10120000FFF7CEFFFFF75EFE002008BD0020024082
:10121000034A1168034B1B780B441360704700BFEF
:10122000C000002004000020014B1868704700BF78
:10123000C0000020002808DB0901C9B200F16040AD
:1012400000F5614080F80013704700F00F000901BD
:10125000C9B2014B1954704714ED00E000B500F01D
:101260000700C0F1070CBCF1040F28BF4FF0040CBD
:10127000031D062B0FD9C31E4FF0FF3E0EFA0CF0D4
:1012800021EA000199400EFA03FE22EA0E0241EA29
:1012900002005DF804FB0023EEE70000074AD36874
:1012A00023F4E0631B041B0C000200F4E060034322
:1012B00043F0BF6343F40033D360704700ED00E0B8
:1012C00010B50446054BD868C0F30220FFF7C6FFEF
:1012D00001462046FFF7AEFF10BD00BF00ED00E065
:1012E000002807DB00F01F02400901239340024A57
:1012F00042F82030704700BF00E100E00138B0F153
:10130000807F0BD24FF0E0235861054AF02182F82C
:1013100023100020986107221A617047012070474E
:1013200000ED00E0034690F82120D2B2022A06D058
:1013300004228263002280F8202001207047016887
:101340000A6822F00E020A6001680A6822F00102AF
:101350000A60026CC06B012101FA02F2426083F85C
:101360002110002083F820007047000008B590F895
:101370002130DBB2022B03D004238363012008BD9C
:101380000268136823F00E0313600268136823F0E9
:10139000010313600368194A934214D01432934234
:1013A0001FD0143293421ED0143293421ED01432F6
:1013B00093421ED01432934202D04FF0807203E069
:1013C0004FF4801200E001220D4B5A60012380F897
:1013D0002130002380F82030436B6BB19847002008
:1013E000CDE71022F0E74FF48072EDE74FF4805222
:1013F000EAE74FF48032E7E70020C0E70800024048
:101400000000024070B582B00024A446A1E07E4DE9
:10141000AB4214D00CD8A5F58015AB420FD005F522
:101420007025AB420BD0A5F58015AB4210D106E07C
:10143000764DAB4203D005F58035AB4208D18B68C1
:10144000002B50D0012B49D04261082400E0CC6829
:10145000BEF1FF0F49D806464FEA8C0233680F25CC
:10146000954023EA050304FA02F2134333604B6804
:1014700013F0805F6BD0664B9A6942F001029A616B
:101480009B6903F001030193019B4FEA9C02951CA9
:10149000604B53F825600CF00305AD000F23AB4003
:1014A00026EA03065C4B984226D003F580639842F7
:1014B00000F08C8003F58063984200F0898003F58A
:1014C0008063984216D0042317E0CC680434BFE749
:1014D000CC680834BCE7CC680C34B9E70261082456
:1014E000B6E70024B4E70424B2E7061DACF1080215
:1014F0009200B3E7032300E00023AB403343023202
:10150000444D45F822304B6813F4801F62D0434AA3
:10151000936843EA0E0393604B6813F4001F5FD097
:101520003E4AD36843EA0E03D3604B6813F4003F8E
:101530005CD03A4A536843EA0E0353604B6813F495
:10154000803F59D0354A136843EA0E0313600CF10B
:10155000010C0B6833FA0CF254D0012202FA0CF29F
:1015600003EA020E32EA0303F1D14B68122B3FF675
:101570004EAF122B3FF66CAF01A555F823F000BF1C
:101580003F1400084F140008D1140008E3140008A9
:101590005114000851140008511400085114000897
:1015A0005114000851140008511400085114000887
:1015B0005114000851140008511400085114000877
:1015C00051140008CB140008D7140008012394E735
:1015D000022392E7114A936823EA0E0393609BE784
:1015E0000E4AD36823EA0E03D3609EE70B4A536882
:1015F00023EA0E035360A1E7084A136823EA0E03A7
:101600001360A4E702B070BD00002210000031108A
:1016100000100240000001400008014000040140A9
:1016200082B0084B1B68084AA2FB03235B0A00FB3D
:1016300003F3019300BF019B5A1E0192002BF9D1C5
:1016400002B0704700000020D34D6210002800F067
:10165000F18170B582B00446036813F0010F2CD0FD
:10166000994B5B6803F00C03042B1DD0964B5B6811
:1016700003F00C03082B12D06368B3F5803F41D010
:10168000002B55D103F1804303F504331A6822F48B
:1016900080321A601A6822F480221A6037E08A4B7E
:1016A0005B6813F4803FE7D0874B1B6813F4003F5F
:1016B00003D06368002B00F0BF81236813F0020F92
:1016C00075D0814B5B6813F00C0F5FD07E4B5B686D
:1016D00003F00C03082B54D02369002B00F08A8000
:1016E0007A4B01221A60FFF79FFD0546764B1B6877
:1016F00013F0020F75D1FFF797FD401B0228F5D9B3
:1017000003209EE1704A136843F4803313606368DA
:1017100043B3FFF789FD05466B4B1B6813F4003F8D
:10172000CBD1FFF781FD401B6428F5D9032088E168
:10173000B3F5A02F09D0644B1A6822F480321A60E6
:101740001A6822F480221A60E1E703F18043A3F5CE
:101750003C331A6842F480221A601A6842F48032DC
:101760001A60D4E7FFF760FD0546574B1B6813F47A
:10177000003FA2D0FFF758FD401B6428F5D9032095
:101780005FE1514B5B6813F4803FA5D14E4B1B6862
:1017900013F0020F03D02369012B40F04F814A4A16
:1017A000136823F0F803616943EAC10313602368F7
:1017B00013F0080F33D0A369002B5CD0434B0122F8
:1017C000C3F88024FFF730FD05463F4B5B6A13F0FA
:1017D000020F21D1FFF728FD401B0228F5D9032075
:1017E0002FE1394A136823F0F803616943EAC10322
:1017F0001360DCE7354B00221A60FFF715FD054644
:10180000314B1B6813F0020FD1D0FFF70DFD401BC9
:101810000228F5D9032014E10120FFF701FF236816
:1018200013F0040F00F09680274BDB6913F0805F04
:1018300034D1254BDA6942F08052DA61DB6903F07A
:1018400080530193019B0125214B1B6813F4807F7A
:1018500026D0E368012B3DD0002B53D103F1804308
:1018600003F504331A6A22F001021A621A6A22F09E
:1018700004021A6233E0154B0022C3F88024FFF7FC
:10188000D3FC0546104B5B6A13F0020FC7D0FFF77D
:10189000CBFC401B0228F5D90320D2E00025D3E77A
:1018A0000B4A136843F480731360FFF7BDFC0646D0
:1018B000074B1B6813F4807FCBD1FFF7B5FC801B6F
:1018C0006428F5D90320BCE0001002400000424229
:1018D000007000405F4A136A43F001031362E3683B
:1018E00033B3FFF7A1FC06465A4B1B6A13F0020FF5
:1018F0002FD1FFF799FC801B41F288339842F3D92E
:1019000003209EE0052B09D0524B1A6A22F00102F7
:101910001A621A6A22F004021A62E0E74D4B1A6A50
:1019200042F004021A621A6A42F001021A62D6E711
:10193000FFF77AFC0646474B1B6A13F0020F08D0EC
:10194000FFF772FC801B41F288339842F3D90320E1
:1019500077E0E5B9E369002B72D03E4A526802F0A5
:101960000C02082A56D0022B17D03B4B00221A66D5
:10197000FFF75AFC0446374B1B6813F0007F47D033
:10198000FFF752FC001B0228F5D9032059E0314A29
:10199000D36923F08053D361DCE72F4B00221A6612
:1019A000FFF742FC05462B4B1B6813F0007F06D067
:1019B000FFF73AFC401B0228F5D9032041E0236AD7
:1019C000B3F5803F1AD023494B6823F47413226A7D
:1019D000606A024313434B601F4B01221A66FFF7F4
:1019E00023FC04461B4B1B6813F0007F0ED1FFF74E
:1019F0001BFC001B0228F5D9032022E0154A53687E
:101A000023F40033A1680B435360DCE7002018E0A7
:101A1000002016E0012B16D00E4B5B6803F48031DA
:101A2000226A914211D103F47013626A93420ED17B
:101A3000002006E001207047012002E0012000E0C4
:101A4000002002B070BD0120FBE70120F9E7012072
:101A5000F7E700BF00100240000042420F4B5B68F6
:101A600003F00C02082A01D00D487047C3F38342EB
:101A70000C49885C13F4803F0BD0084B5B68C3F3C0
:101A80004043094AD35C064A02FB00F0B0FBF3F086
:101A90007047064B03FB00F0704700BF0010024088
:101AA00000127A002C3D0008283D000800093D0086
:101AB000002800F0A08070B50D460446524B1B680C
:101AC00003F007038B420BD24F4A136823F007033E
:101AD0000B431360136803F007038B4240F08D80C3
:101AE000236813F0020F17D013F0040F04D0474AF5
:101AF000536843F4E0635360236813F0080F04D085
:101B0000424A536843F460535360404A536823F099
:101B1000F003A1680B435360236813F0010F31D029
:101B20006368012B20D0022B25D0384A126812F0AE
:101B3000020F64D035494A6822F0030213434B6018
:101B4000FFF772FB0646314B5B6803F00C036268DB
:101B5000B3EB820F16D0FFF767FB801B41F288338F
:101B60009842F0D9032045E0284A126812F4003F59
:101B7000E0D101203EE0254A126812F0007FD9D161
:101B8000012037E0204B1B6803F00703AB420AD962
:101B90001D4A136823F007032B431360136803F0F7
:101BA0000703AB422DD1236813F0040F06D0174A68
:101BB000536823F4E063E1680B435360236813F038
:101BC000080F07D0114A536823F46053216943EA90
:101BD000C1035360FFF742FF0C4B5B68C3F3031371
:101BE0000B4AD35CD8400B4B18600B4B1868FFF7BF
:101BF000D7FA002070BD012070470120FAE70120CC
:101C0000F8E70120F6E700BF002002400010024084
:101C1000183D00080000002008000020014B186853
:101C2000704700BF0000002008B5FFF7F7FF044B26
:101C30005B68C3F30223034AD35CD84008BD00BFEE
:101C400000100240103D000808B5FFF7E7FF044B05
:101C50005B68C3F3C223034AD35CD84008BD00BF0E
:101C600000100240103D000830B4026A036A23F0FD
:101C7000010303624568836923F073030C681C4306
:101C800022F002028B6813430B4A904206D0456053
:101C900084614A684263036230BC704723F00803E2
:101CA000CA681A4322F0040325F440754A692A439E
:101CB0008D691543EBE700BF002C014030B4036A87
:101CC000026A22F4807202624468C26922F07302DE
:101CD0000D68154323F400738A6843EA02230D4A12
:101CE000904206D04460C5614A68C263036230BC5A
:101CF000704723F40063CA6843EA022323F4806335
:101D000024F440544A6944EA02148A6944EA0214F9
:101D1000E8E700BF002C014030B4036A026A22F4F5
:101D2000805202624468C26922F4E6420D6842EAC7
:101D3000052223F400538D6843EA0533074DA8427A
:101D400006D04460C2614A680264036230BC7047D6
:101D500024F480444D6944EA8514F2E7002C0140E4
:101D600010B4036A046A24F001040462846924F054
:101D7000F00C4CEA021223F00A030B438261036267
:101D800010BC704710B4036A046A24F010040462A3
:101D9000846924F4704C4CEA023223F0A00343EA35
:101DA00001138261036210BC7047836823F07003E3
:101DB0000B4343F0070383607047704703681F4A73
:101DC00090420AD0B0F1804F07D0A2F594329042F1
:101DD00003D002F58062904203D123F070034A6879
:101DE0001343164A90420AD0B0F1804F07D0A2F5B3
:101DF0009432904203D002F58062904203D123F4E2
:101E00004073CA68134323F080034A691343036095
:101E10008B68C3620B688362084B98420AD0012327
:101E20004361036913F0010F03D0036923F0010339
:101E3000036170470B690363F1E700BF002C0140A9
:101E400040B310B5044690F83D30F3B1022384F856
:101E50003D30214651F8040BFFF7B0FF012384F811
:101E6000463084F83E3084F83F3084F8403084F8BF
:101E7000413084F8423084F8433084F8443084F8A8
:101E8000453084F83D30002010BD80F83C30FFF72D
:101E900051F8DBE70120704740B310B5044690F8D5
:101EA0003D30F3B1022384F83D30214651F8040B54
:101EB000FFF784FF012384F8463084F83E3084F82D
:101EC0003F3084F8403084F8413084F8423084F860
:101ED000433084F8443084F8453084F83D300020A5
:101EE00010BD80F83C30FFF768FFDBE7012070474A
:101EF00030B4036A026A22F0100202624468826906
:101F000022F4E6420D6842EA052223F020038D68A0
:101F100043EA05130C4DA84206D0446082614A682A
:101F20008263036230BC704723F08003CD6843EACC
:101F3000051323F0400324F440644D6944EA85040A
:101F40008D6944EA8504E8E7002C014038B590F833
:101F50003C30012B66D004460D46012380F83C300E
:101F60000C2A5AD8DFE802F0075959591B59595918
:101F70003059595944000068FFF776FE226893698A
:101F800043F0080393612268936923F0040393618B
:101F90002268936929690B43936100203EE0006841
:101FA000FFF7A6FF2268936943F4006393612268F8
:101FB000936923F48063936122689369296943EAF2
:101FC00001239361002029E00068FFF777FE226873
:101FD000D36943F00803D3612268D36923F0040373
:101FE000D3612268D36929690B43D361002015E0CE
:101FF0000068FFF791FE2268D36943F40063D36160
:102000002268D36923F48063D3612268D369296984
:1020100043EA0123D361002000E00120002384F87B
:102020003C3038BD0220FCE710B4846824F47F4CB7
:1020300042EA03220A4342EA0C02826010BC704763
:1020400090F83C30012B78D010B50446012380F87D
:102050003C30022380F83D300268936823F47F43CC
:1020600023F0770393600B68602B4CD023D8402B70
:1020700054D011D8202B03D00AD80BB1102B05D186
:1020800019462068FFF791FE002028E0012026E095
:10209000302BF5D0012022E0502B0AD1CA684968C4
:1020A0000068FFF75DFE50212068FFF77EFE0020EC
:1020B00015E0012013E0B3F5805F3AD0B3F5005F7F
:1020C00014D0702B37D1CB684A6889680068FFF755
:1020D000ABFF2268936843F07703936000200123ED
:1020E00084F83D30002384F83C3010BDCB684A684A
:1020F00089680068FFF798FF2268936843F480437B
:1021000093600020EBE7CA6849680068FFF73AFE71
:1021100060212068FFF749FE0020E0E7CA684968AF
:102120000068FFF71DFE40212068FFF73EFE0020FB
:10213000D5E70020D3E70120D1E70220704701F066
:102140001F014FF0010C0CFA01FC036A23EA0C0397
:102150000362036A8A4013430362704710B5044662
:10216000084651BB94F83E30DBB2013B18BF012357
:10217000002B5BD1002839D1022384F83E300122A4
:1021800001462068FFF7DBFF23682A4A93423DD0CF
:102190002368284A93423ED0B3F1804F3BD0A2F54A
:1021A0009432934237D002F58062934233D01A685A
:1021B00042F001021A60002039E0042908D0082901
:1021C0000DD094F84130DBB2013B18BF0123CFE7BB
:1021D00094F83F30DBB2013B18BF0123C8E794F805
:1021E0004030DBB2013B18BF0123C1E7042805D012
:1021F000082807D0022384F84130C0E7022384F87E
:102200003F30BCE7022384F84030B8E75A6C42F410
:1022100000425A64BCE79A6802F00702062A07D017
:102220001A6842F001021A60002000E0012010BD8F
:102230000020FCE7002C014090F83C20012A2CD023
:1022400010B40346012280F83C20022280F83D2091
:1022500002685068946820F0700C086840EA0C002E
:1022600050601A680E4882420AD0B2F1804F07D0FF
:10227000A0F59430824203D000F58060824204D100
:1022800024F08004496821439160012283F83D20B5
:10229000002083F83C0010BC70470220704700BF4C
:1022A000002C0140024690F83C30012B21D0012344
:1022B00080F83C30CB6823F440738868034323F4F0
:1022C00080634868034323F400630868034323F4EE
:1022D00080530869034323F400534869034323F4FC
:1022E0008043C9690B4311684B64002082F83C00AD
:1022F000704702207047026802F10C0353E8003F68
:1023000023F490730C3242E800310029F3D10268C3
:1023100002F1140353E8003F23F00103143242E8B2
:1023200000310029F3D1036B012B05D0202380F865
:102330004230002303637047026802F10C0353E844
:10234000003F23F010030C3242E800310029F3D1A2
:10235000ECE790F84130DBB2212B01D0022070472E
:102360008368B3F5805F17D0036A5A1C02621A783B
:1023700003685A60C38C9BB2013B9BB2C3844BB9C8
:102380000268D36823F08003D3600268D36843F007
:102390004003D360002070470369002BE4D1036A37
:1023A0001B880268C3F308035360036A02330362A5
:1023B000E0E7000010B504460268136923F44053B7
:1023C000C1680B43136183680269134342691A436E
:1023D0000168CB6823F4B05323F00C031343CB60A4
:1023E0000268536923F4407381690B4353610268A7
:1023F000134B9A4220D0FFF717FC024602EB8202F1
:1024000002EB820263689B00B2FBF3F20D48A0FB73
:1024100002314909642303FB11231B013233A0FB62
:1024200003035B0903F0F00202EB011203F00F0358
:10243000216813448B6010BDFFF706FC0246DDE700
:10244000003801401F85EB5160B310B5044690F889
:10245000413013B3242384F841302268D36823F435
:102460000053D3602046FFF7A5FF2268136923F4C9
:10247000904313612268536923F02A035361226851
:10248000D36843F40053D36000206064202384F8B1
:10249000413084F84230606310BD80F84030FEF770
:1024A00015FED7E701207047704708B50168CA6874
:1024B00022F04002CA60202280F84120FFF7F4FF9A
:1024C000002008BD704708B5406A0023C385C38457
:1024D000FFF7F8FF08BD704790F84230DBB2222BBF
:1024E00069D18368B3F5805F4FD0826AB3F5805FAE
:1024F00004D0002B56D10369002B53D103685B68CD
:102500001370836A01338362C38D9BB2013B9BB21C
:10251000C385002B51D100B583B00268D36823F086
:102520002003D3600268D36823F48073D360026809
:10253000536923F001035361202380F842300023C4
:102540004363036B012B33D100230363026802F161
:102550000C0353E8003F23F010030C3242E8003133
:102560000029F3D103681A6812F0100F06D0002278
:1025700001921A6801925B680193019B818DFFF7BC
:10258000AAFF002003B05DF804FB0269002AACD169
:10259000826A03685B68C3F308031380836A0233AB
:1025A0008362B1E703685B6803F07F031370A8E7F9
:1025B000FEF7D4FBE5E702207047002070470000DB
:1025C00010B582B0044602681368D068516913F0F0
:1025D0000F0F09D113F0200F0CD010F0200F09D0ED
:1025E0002046FFF779FF16E011F0010115D110F434
:1025F000907F12D1216B012979D013F0800F03D085
:1026000010F0800F40F0138113F0400F03D010F052
:10261000400F40F0108102B010BD13F0010F06D042
:1026200010F4807F03D0626C42F00102626413F008
:10263000040F04D019B1626C42F00202626413F01C
:10264000020F04D019B1626C42F00402626413F00C
:10265000080F07D010F0200F00D119B1626C42F0C2
:1026600008026264626C002AD5D013F0200F02D0F9
:1026700010F0200F29D123685B6903F04003626CDE
:1026800012F0080F00D163B32046FFF734FE236831
:102690005B6913F0400F20D0226802F1140353E865
:1026A000003F23F04003143242E800310029F3D107
:1026B000E36B73B1624A5A63E06BFEF757FE002882
:1026C000A9D0E06B436B9847A5E72046FFF704FFCE
:1026D000D1E72046FFF7F6FE9DE72046FFF7F2FE22
:1026E00099E72046FFF7EEFE0023636493E713F0BB
:1026F000100F82D010F0100F3FF47FAF0023019332
:102700001368019353680193019B536913F0400FC1
:1027100051D0E26B13685B689BB2002B3FF47BAF38
:10272000A18D99427FF677AFE3859369202B37D04F
:10273000226802F10C0353E8003F23F480730C324B
:1027400042E800310029F3D1226802F1140353E872
:10275000003F23F00103143242E800310029F3D195
:10276000226802F1140353E8003F23F040031432BF
:1027700042E800310029F3D1202384F842300023BD
:102780002363226802F10C0353E8003F23F0100397
:102790000C3242E800310029F3D1E06BFEF7C2FDB4
:1027A00002236363A18DE38D9BB2C91A89B22046CF
:1027B000FFF791FE2FE7A18DE38D9BB2C91A89B275
:1027C000E38D9BB2002B3FF426AF00293FF423AFEB
:1027D000226802F10C0353E8003F23F490730C329B
:1027E00042E800300028F3D1226802F1140353E8D4
:1027F000003F23F00103143242E800300028F3D1F7
:10280000202384F8423000232363226802F10C0362
:1028100053E8003F23F010030C3242E80030002858
:10282000F3D1022363632046FFF755FEF3E620460B
:10283000FFF78FFDEFE62046FFF737FEEBE600BF20
:10284000C724000881628285C28500234364222355
:1028500080F84230036923B10268D36843F480737F
:10286000D3600268536943F0010353610268D3687F
:1028700043F02003D3600020704708B590F8423041
:10288000DBB2202B08D149B10AB9012008BD0023D1
:102890000363FFF7D7FFF9E70220F7E70120F5E729
:1028A00070B5860747D0541E002A3ED00346CAB2F0
:1028B00001E0013C39D303F8012B9D07F9D1032C2A
:1028C0002CD9CDB205EB05250F2C1A4605EB054595
:1028D00034D9A4F1100C2CF00F0603F1100EB644FD
:1028E0004FEA1C1CC2E90055C2E90255103272457C
:1028F000F8D10CF1010214F00C0F03EB021204F0FA
:102900000F0C13D0ACF1040323F00303043313447E
:1029100042F8045B9342FBD10CF003042CB1C9B222
:102920001C4403F8011BA342FBD170BD644613464F
:10293000002CF4D1F9E703461446C0E7A446E1E7CA
:1029400070B50F4B0F4DAB42A3EB050607D000242B
:10295000B61055F8043B01349847A642F9D801F067
:10296000CBF9094D094B5E1BAB424FEAA60606D0D8
:10297000002455F8043B01349847A642F9D870BDAD
:10298000183F0008183F0008183F0008203F0008C3
:10299000704700BF704700BF024B13B1024800F000
:1029A00005B8704700000000B9290008002301465F
:1029B0001A46184600F014B838B5074D074C2C1BC2
:1029C000A41005D0013C55F8043D9847002CF9D1DE
:1029D000BDE8384001F096B9243F0008203F0008C8
:1029E0002DE9F8431B4D0646286898460F46914648
:1029F000FFF7CEFF184B1C681CB3286865681F2DB5
:102A000022DC4EB96B1C0235636044F82570FFF779
:102A1000C1FF0020BDE8F883012304EB8501C1F864
:102A20008890D4F88821AB401A43022EC4F888213C
:102A3000C1F80881E6D1D4F88C211A43C4F88C215E
:102A4000E0E7064C1C60D8E7FFF7A4FF4FF0FF302B
:102A5000E0E700BF0C000020C8000020CC000020F0
:102A600030B5224A21F00043934287B01BD9204A57
:102A7000934205D902460B46FDF72CFD07B030BD49
:102A800002AA00F019FA00F0030001281FD0022862
:102A900011D018BBDDE90423DDE902010124009413
:102AA00000F052F9EAE7002400220023009400F02D
:102AB0004BF907B030BD0124DDE90423DDE9020153
:102AC000009400F041F901F1004107B030BDDDE9AB
:102AD0000423DDE9020100F00FF8CFE7DDE904236C
:102AE000DDE9020100F008F8EDE700BFFB21E93F56
:102AF000FFFFEF7F000000002DE9F04F21F00048BC
:102B0000B8F1795F06460F4692469B4685B06DD276
:102B1000FEF79EF8002800F0ED8032463B46304636
:102B20003946FDF7F5FA76A3D3E9002304460D46AE
:102B3000FDF7EEFA74A3D3E90023FDF7CDFC22469E
:102B40002B46FDF7E5FA72A3D3E90023FDF7C2FC9B
:102B500022462B46FDF7DCFA6FA3D3E90023FDF7ED
:102B6000BBFC22462B46FDF7D3FA6DA3D3E9002325
:102B7000FDF7B0FC22462B46FDF7CAFA6AA3D3E95B
:102B80000023FDF7A9FC22462B46FDF7C1FACDE94B
:102B90000001002220462946654BFDF7B9FADDE920
:102BA00000238046894620462946FDF7B1FA44466F
:102BB0004D468046894652465B4630463946FDF7CB
:102BC000A7FA02460B4640464946FDF783FC0246FB
:102BD0000B4620462946FDF77DFC02460B460020A9
:102BE0005449FDF777FC05B0BDE8F08F02460B466F
:102BF000FDF78EFA42A3D3E9002304460D46FDF704
:102C000087FA41A3D3E90023FDF766FC22462B4651
:102C1000FDF77EFA3EA3D3E90023FDF75BFC2246D5
:102C20002B46FDF775FA3CA3D3E90023FDF754FCCE
:102C300022462B46FDF76CFA39A3D3E90023FDF7B2
:102C400049FC22462B46FDF763FA37A3D3E900235C
:102C5000FDF742FC2B462246FDF75AFA364BCDE9EA
:102C60000001984595D9354B002298453AD8A8F5EA
:102C7000001300202F4990469946FDF72BFCCDE923
:102C80000201002220462946294BFDF741FA42461F
:102C90004B46FDF71FFCDDE90023804689462046B0
:102CA0002946FDF735FA44464D4680468946524648
:102CB0005B4630463946FDF72BFA02460B46404646
:102CC0004946FDF707FC02460B4620462946FDF71C
:102CD00001FC02460B46DDE90201FDF7FBFB05B0F6
:102CE000BDE8F08F164B4FF00008CDE90223DFF866
:102CF0005490C6E700200F4905B0BDE8F08F00BF33
:102D0000D43888BEE9FAA8BDC4B1B4BD9EEE213E58
:102D1000AD529C804F7E923E9015CB19A001FA3E99
:102D20007751C1166CC1563F4C5555555555A53F69
:102D30000000E03F0000F03F3233D33F0000E93FA6
:102D40000000E73F0000D23F2DE9F04F83B0CDE90E
:102D5000002321F00043B3F1795F04460D4604D20D
:102D6000FDF776FF002800F0858022462B4620469E
:102D70002946FDF7CDF906460F4632463B4620462A
:102D80002946FDF7C5F93EA3D3E9002382468B46C9
:102D900030463946FDF7BCF93BA3D3E90023FDF7E4
:102DA00099FB32463B46FDF7B3F939A3D3E900233B
:102DB000FDF792FB32463B46FDF7AAF936A3D3E96D
:102DC0000023FDF787FB32463B46FDF7A1F934A30C
:102DD000D3E90023FDF780FB0C9B804689469BB31B
:102DE000DDE900010022324BFDF792F942464B46E5
:102DF0008046894650465946FDF78AF902460B46F9
:102E000040464946FDF766FB32463B46FDF780F9F2
:102E1000DDE90023FDF75EFB23A3D3E9002306468B
:102E20000F4650465946FDF773F902460B463046A9
:102E30003946FDF751FB02460B4620462946FDF771
:102E400049FB03B0BDE8F08F02460B4630463946D9
:102E5000FDF75EF914A3D3E90023FDF73BFB5246CF
:102E60005B46FDF755F922462B46FDF735FB03B0CF
:102E7000BDE8F08F2046294603B0BDE8F08F00BFC3
:102E80007CD5CF5A3AD9E53DEB9C2B8AE6E55A3EF4
:102E90007DFEB157E31DC73ED561C119A0012A3F90
:102EA000A6F810111111813F495555555555C53F8B
:102EB0000000E03F000000002DE9F04F844B21F0BE
:102EC00000459D428046894614468FB040F28A8074
:102ED000804B0E469D4228D873A3D3E900230029D6
:102EE00040F39D81FDF7F6FA7B4B06469D420F4667
:102EF00000F089806EA3D3E90023FDF7EBFA0246C8
:102F00000B463046394616461F46FDF7E3FA68A3DE
:102F1000D3E90023FDF7DEFAC4E900670127C4E91D
:102F2000020138460FB0BDE8F08F6C4B9D4240F275
:102F300084806B4B9D425DD82F15A7F21647A5EBF9
:102F400007518946FDF784FEFDF712FC02460B4649
:102F500040464946CDE90823FDF7BCFA0022614B03
:102F6000FDF7D6F889468046FDF772FEFDF700FCB6
:102F700002460B4640464946CDE90A23FDF7AAFA28
:102F80000022584BFDF7C4F803254FF000084FF01E
:102F90000009CDE90C010DF1380A42467AE9020137
:102FA0004B46AB46013DFDF721FE0028F5D1022539
:102FB0004D493A4601915B46214608A8009500F02C
:102FC00085F9002E0746ACDA60682268E16800F1F6
:102FD0000043C4E90023A26801F10043C4E90223CD
:102FE0007F429EE700220023C4E90089C4E902234E
:102FF000002796E702460B46FDF76CFAC4E902018A
:10300000C4E90001F4E72CA3D3E90023FDF762FA39
:103010002BA3D3E9002380468946FDF75BFA0646D9
:103020000F4632463B4640464946FDF753FA24A335
:10303000D3E90023FDF74EFA6EE700F043F922A32F
:10304000D3E9002380468946FDF762F80022274B2A
:10305000FDF742FAFDF7FCFD0746FDF789FB024646
:103060000B46CDE9042310A3D3E90023FDF750F864
:1030700002460B4640464946FDF72CFA0CA3D3E91D
:10308000002382468B46DDE90401FDF741F81F2F3E
:10309000CDE902012EDC164B7A1E53F82230AB42EA
:1030A00028D002460B4699E000004054FB21F93F2E
:1030B0003163621A61B4D03D0000601A61B4D03D42
:1030C0007370032E8A19A33B83C8C96D305FE43F38
:1030D000FB21E93F7BD90240FB21F93FFB2139412C
:1030E000FFFFEF7F00007041BC3D00080000E03FA3
:1030F0003C3D0008DDE9022350465946FDF7EAF958
:103100002B150793C1F30A53C3EB1553102B8046BD
:10311000894669DD60A3D3E90023DDE90401FCF7FA
:10312000F7FF8046894642464B4650465946FDF7D2
:10313000D1F902460B465046594692469B46FDF74A
:10314000C9F942464B46FDF7C5F955A3D3E900231B
:1031500080468946DDE90401FCF7DAFF42464B462A
:10316000FDF7B8F902460B4650465946CDE9022311
:10317000FDF7B0F9079AC1F30A53D31A312B8046F1
:10318000894631DD48A3D3E90023DDE90401FCF7DA
:10319000BFFF8046894642464B4650465946FDF79A
:1031A00099F902460B465046594692469B46FDF712
:1031B00091F942464B46FDF78DF93DA3D3E9002333
:1031C00080468946DDE90401FCF7A2FF42464B46F2
:1031D000FDF780F902460B46CDE9022350465946D9
:1031E000FDF778F98046894642464B465046594697
:1031F000C4E90089FDF76EF9DDE90223FDF76AF9FC
:10320000002EC4E90201BFF68CAE09F10042C4E908
:10321000008201F10042C4E902027F4281E6FDF72B
:103220005BF9274B06469D420F4618D022A3D3E9EF
:103230000023FDF751F902460B4630463946164643
:103240001F46FDF747F91CA3D3E90023FDF744F916
:10325000C4E90067C4E902014FF0FF3761E60EA33D
:10326000D3E90023FDF738F90DA3D3E90023804605
:103270008946FDF731F906460F4632463B46404641
:103280004946FDF727F906A3D3E90023FDF724F902
:10329000DEE700BFAFF300800000601A61B4D03DEC
:1032A0007370032E8A19A33B0000002E8A19A33BDA
:1032B000C14920259A837B393163621A61B4D03DBC
:1032C000FB21F93F21F00043194670472DE9F04FEB
:1032D000ADF51B7DBD4CA49D9C4654F82540013B9B
:1032E00012F1140F814605940C910393C0F2A88249
:1032F000B749D31E81FB0301DB17C3EBA10307937F
:103300000133A3EB8303DB00D318079A0D930CF171
:10331000FF33D61A059A12EB03081CD408F10108F2
:1033200000240025E346DDF894A2B04422AF08E073
:103330005AF82600FDF71CFA01364645E7E8020177
:1033400008D0002EF4DA2046294601364645E7E843
:103350000201F6D1DC46059B002BA9F1080304937A
:10336000B8BF4FEACC0637DBDDF80C9003EBCC0896
:103370004B460DF5E47BD9469B4622AA02EBCC0ACC
:10338000059A4FEACC0662440192CDF808C0069631
:10339000039B002BC0F29A81574600240025049E0F
:1033A00077E90223F6E90201FCF7B2FE02460B467A
:1033B00020462946FDF790F8464504460D46EFD1D4
:1033C000019B0BF1010B9B45E9E802450AF1080A54
:1033D000DED1DDF808C0069E059A049B934603EBF8
:1033E000060A0EAB03EB8203043B08930EAB03EB20
:1033F0008206CDE909A60D9FCDF82CC09AAB4FEA05
:10340000CB0203EBCB03BBF1000F019253E928453C
:103410002BDD0DF5E47A0DF138090AEB020802976D
:1034200000226C4B20462946FCF772FEFDF710FC8B
:10343000FDF79EF90022684B06460F46FCF768FE32
:1034400002460B4620462946FDF744F8FDF700FCEE
:1034500078E9022349F8040B39463046FDF73CF879
:10346000D04504460D46DBD1029F204629463A4608
:1034700000F03EFB00224FF07F5304460D46FCF760
:1034800047FE00F0B5FB0022544BFCF741FE02461C
:103490000B4620462946FDF71DF80D460446FDF76C
:1034A000D7FB0646FDF764F902460B46204629463F
:1034B000FDF710F8002F8046894640F391800BF10C
:1034C000FF300EAB53F82030C7F1180243FA02F177
:1034D00001FA02F29B1A0EAA42F82030C7F1170235
:1034E00043FA02F5002D0E4400F3D8800022002399
:1034F00040464946FDF77AFB002800F05282059BC2
:103500009B450DDD00220EAB0A9803EB8B0353F8AD
:10351000041D834242EA0102F9D1002A40F0D98019
:10352000059B0EAA013B52F82330002B40F0CA80C5
:103530000123089A52F8041D01330029FAD05B4494
:103540000BF1010807990B9A08EB010A0AF1804A6E
:10355000A5990AF1FF3A5A44019E01EB8A0A22A971
:1035600001EBC209DDF824B072AA16440293069753
:10357000CDF804A0019B53F8040F0193FDF7F8F870
:10358000039BE9E80201002B1DDBCA46002400254D
:10359000049F7AE90223F7E90201FCF7B9FD02462C
:1035A0000B4620462946FCF797FF5F4504460D462B
:1035B000EFD1029B08F101084345E6E90245D9DA5B
:1035C0009B46069F1AE700240025F2E7083F000803
:1035D000ABAAAA2A0000703E000070410000204003
:1035E00053D10BF1FF330EAA52F82350ED15002DE5
:1035F0007FF77CAFBBF1000F06F1010640F341827B
:1036000000220EAB53F8044B002C3AD0C4F1807466
:103610006FF07F4043F8044C03E01968411A43F807
:10362000041B01329345F8DC0124002F0DDD012F2E
:103630003DD0022F09D10BF1FF320EAB53F82230EF
:103640000EA9C3F3150341F82230022D7FF44EAFCB
:1036500042464B4600208F49FCF73CFF8046894696
:10366000002C3FF443AF3A4600208A4900F040FA6C
:1036700002460B4640464946FCF72CFF80468946E9
:1036800034E701329345BDDCCFE70022824BFDF7E2
:10369000CBFA002840F0C280054627E7BBF1000FB7
:1036A000D8BF002406F10106AADC012FC1D10BF11D
:1036B000FF320EAB53F822300EA9C3F3160341F8C4
:1036C0002230C2E70BF1010843463BE70024002506
:1036D00076E60D9B0BF1FF34A3F118020EAB53F805
:1036E0002430069604950D9263B90BF18043013B9B
:1036F0000EA901EB830353F8041D013C183A00297D
:10370000F9D00D9200200D9A624900F0F1F9002CD9
:1037100006460F46C0F2C18104F1010A4FEACA020F
:103720004FF0000893460EAB03EB8A05DFF86C916F
:1037300072AB03EBCA0A55F8040DFDF719F83246CF
:103740003B46FCF7E5FC4B466AE90201424630463F
:103750003946FCF7DDFC0EAB9D4206460F46EAD12A
:103760005A464FF00009ABF108034AA972A800EBD2
:10377000030AA3460B46CDE907425246CA46DDF886
:1037800014900391B9F1000FC0F281809046002699
:1037900000240025CDE90132414F01E0564510DCFF
:1037A000F7E90223F8E80201FCF7B2FC02460B46F7
:1037B00020462946FCF790FE0136B14504460D46E9
:1037C000ECDADDE901320BF1FF3BBBF1FF3FE3E84F
:1037D00002450AF1010AA2F10802D3D1DDE907424C
:1037E000A49B022B5EDC002B2FDC10D100200021DB
:1037F000039DAC1874E90223FCF76EFEAC42F9D1CC
:10380000049B002B40F039810C9BC3E90001069B0F
:1038100003F007000DF51B7DBDE8F08FBBF1000F35
:10382000C8BF022506F101063FF7EAAE42464B4605
:1038300000201849FCF74EFE02258046894655E6D1
:1038400000216FF0170307915EE5039B0026002718
:1038500098469D18304675E902233946FCF73CFE30
:10386000454506460F46F5D10B460246DDE94A01BD
:10387000FCF730FE049B002B00F0E2800C9D07F16A
:103880000042C5E90062002C40F0DE80E8E0002440
:10389000002598E70000F03F0000E03F0000703E88
:1038A000C03E0008A49B032BB1D1002C00F0058181
:1038B000039B4FEAC40803EBC405A946D5E900679A
:1038C00001950294059559E902453046394622464C
:1038D0002B46FCF701FEB246BB4606460F46324673
:1038E0003B4620462946FCF7F5FD5B465246FCF771
:1038F000F3FDC9E9000169E90267039B9945E2D13B
:10390000029C059D012C00F0D880D5E90045039B61
:10391000DDF8049003F1080BCDF80480D84659E98E
:1039200002672046294632463B46FCF7D5FDA246B3
:10393000AB4604460D4622462B4630463946FCF738
:10394000C9FD52465B46FCF7C7FDC9E9000169E9BC
:103950000245C845E3D100200021DDF80480039B27
:1039600008F108041C4403F1100574E90223FCF774
:10397000B3FDA542F9D1DDE94A56039BD3E90278AC
:10398000049B002B46D10C9BC3E90401C3E90056FC
:10399000C3E90278069B03F007000DF51B7DBDE827
:1039A000F08F06960D9E404649467242049500F0FF
:1039B0009FF800224B4B5F4680468946FDF734F95D
:1039C000F8B10022484B40464946FCF7A1FBFDF701
:1039D0003FF90546FCF7CCFE0022424BFCF798FB72
:1039E0000B46024649464046FCF774FDFDF730F9A8
:1039F0007C1C0EAB183643F82B000D9643F8245070
:103A000080E640464946FDF723F90EAB5C4643F895
:103A10002B0077E60C9B2C4606F100455D601D46A9
:103A20001C6008F10043C5E90273069B01F10042E6
:103A3000C5E9040203F007000DF51B7DBDE8F08F1A
:103A40000C9BC3E9006774B10125DDF80C800135DA
:103A5000F8E90223FCF740FDAC42F8DA049B13B10D
:103A600001F1004319460C9BC3E90201069B03F0D8
:103A700007000DF51B7DBDE8F08F01F100431946ED
:103A8000C2E6022D7FF432AD02460B4600201749F4
:103A9000FCF720FD8046894628E5A49B022B06DC26
:103AA000002B0DDC7FF4B3AE00200021A8E6A49B20
:103AB000032B7FF4ACAE4AAB0393002000215AE7FE
:103AC000049BDDE94A0133B100224FF000430C9C16
:103AD000C4E90023C4E7002200230C9CC4E90023AE
:103AE000C1E700BF000070410000703E0000F03FE1
:103AF0002DE9F0411646C1F30A52074688460B46A7
:103B00006ABB21F00043034327D0334B0022FCF76C
:103B1000FFFA324B07469E4288463CDB0B46C1F318
:103B20000A52363A4CF250318E4221DC164440F2B1
:103B3000FE7296421CDC002E26DC16F1350F31DBBE
:103B400023F0FF4121F4E001363641EA0655002218
:103B500038462946224BFCF7DBFABDE8F08140F2FB
:103B6000FF7C6245DED10246FCF7B6FCBDE8F08181
:103B7000454615A3D3E9002363F31E0529461948DA
:103B8000FCF7C6FABDE8F0816FF31E53384643EAEE
:103B90000651BDE8F0810EA3D3E90023FCF7B8FA83
:103BA000BDE8F08108F0004444F0D27141F4B7312F
:103BB00007A3D3E900230C4841F01F01FCF7A8FA42
:103BC000CBE700BFAFF300809C7500883CE4377EF4
:103BD00059F3F8C21F6EA50100005043B03CFFFF2F
:103BE0000000903C9C75008859F3F8C2000000006A
:103BF000C1F30A5C2DE9F041ACF2FF35132D02460A
:103C00000B460C46064632DC002D20DBDFF8E08058
:103C10000F4648FA05F801EA080C5CEA000C2BD0C4
:103C200031A3D3E90023FCF757FC00220023FDF762
:103C300005F840B1002C03DA4FF480132B411F44E8
:103C4000002627EA080421463046BDE8F08126A375
:103C5000D3E90023FCF740FC00220023FCF7EEFF31
:103C60000028F0D0002C27DB00263446EBE7332D6C
:103C700006DDB5F5806F1CD010461946BDE8F08111
:103C80004FF0FF37ACF2134C27FA0CF70742F3D092
:103C900015A3D3E90023FCF71FFC00220023FCF747
:103CA000CDFF0028CFD0002C33460CDB23EA0706DB
:103CB000C9E7FCF711FCE1E724F0004426430DD1ED
:103CC0004FF00044BFE7142D06D00122C5F13405A2
:103CD000AA401344B342E9D20134E7E70026054C79
:103CE000B1E700BFAFF300809C7500883CE4377EED
:103CF000FFFF0F000000F0BFF8B500BFF8BC08BC24
:103D00009E467047F8B500BFF8BC08BC9E46704799
:103D10000000000001020304000000000000000099
:103D2000010203040607080901020000020304055A
:103D3000060708090A0B0C0D0E0F1010FB21F93FA6
:103D4000FB2109407CD91240FB2119407A6A1F40AF
:103D50007CD92240BBFD2540FB2129403A462C401E
:103D60007A6A2F405C4731407CD932409C6B3440AA
:103D7000BBFD3540DB8F3740FB2139401BB43A4057
:103D80003A463C405AD83D407A6A3F404C7E4040DB
:103D90005C4741406C1042407CD942408CA2434079
:103DA0009C6B4440AC344540BBFD4540CBC64640CF
:103DB000DB8F4740EB584840FB21494083F9A20084
:103DC000444E6E00FC291500D1572700DD34F50064
:103DD00062DBC0003C999500419043006351FE00B6
:103DE000BBDEAB00B761C5003A6E2400D24D420085
:103DF0004906E00009EA2E001C92D100EB1DFE00EE
:103E000029B11C00E83EA700F535820044BB2E0016
:103E10009CE98400B4267000417E5F00D691390091
:103E2000538339009CF439008B5F840028F9BD006E
:103E3000F81F3B00DEFF97000F980500112FEF00E1
:103E40000A5A8B006D1F6D00CF7E360009CB27000C
:103E5000464FB7009E663F002DEA5F00BA27750007
:103E6000E5EBC7003D7BF100F739070092528A006D
:103E7000FB6BEA001FB15F00085D8D003003560048
:103E80007BFC4600F0AB6B0020BCCF0036F49A0000
:103E9000E3A91D005E619100081BE600859965009D
:103EA000A0145F008D40680080D8FF0027734D008C
:103EB00006063100CA561500C9A873007BE26000EF
:103EC0006B8CC0000000000000000040FB21F93FA7
:103ED000000000002D44743E000000809846F83C2D
:103EE0000000006051CC783B00000080831BF0395B
:103EF0000000004020257A38000000802282E3364E
:103F0000000000001DF369350200000003000000FE
:083F100004000000060000009F
:083F180099290008090D0008B9
:043F2000E10C0008A8
:103F240000127A000100000010000000C40000200C
:040000050800115589
:00000001FF
